{
  "address": "0x765958E0c51506bE977c9c8fbf50cca61fDa16Dd",
  "abi": [
    {
      "inputs": [
        {
          "internalType": "address",
          "name": "initialOwner",
          "type": "address"
        }
      ],
      "stateMutability": "nonpayable",
      "type": "constructor"
    },
    {
      "anonymous": false,
      "inputs": [
        {
          "indexed": true,
          "internalType": "address",
          "name": "account",
          "type": "address"
        },
        {
          "indexed": true,
          "internalType": "address",
          "name": "operator",
          "type": "address"
        },
        {
          "indexed": false,
          "internalType": "bool",
          "name": "approved",
          "type": "bool"
        }
      ],
      "name": "ApprovalForAll",
      "type": "event"
    },
    {
      "anonymous": false,
      "inputs": [
        {
          "indexed": true,
          "internalType": "address",
          "name": "previousOwner",
          "type": "address"
        },
        {
          "indexed": true,
          "internalType": "address",
          "name": "newOwner",
          "type": "address"
        }
      ],
      "name": "OwnershipTransferred",
      "type": "event"
    },
    {
      "anonymous": false,
      "inputs": [
        {
          "indexed": true,
          "internalType": "address",
          "name": "operator",
          "type": "address"
        },
        {
          "indexed": true,
          "internalType": "address",
          "name": "from",
          "type": "address"
        },
        {
          "indexed": true,
          "internalType": "address",
          "name": "to",
          "type": "address"
        },
        {
          "indexed": false,
          "internalType": "uint256[]",
          "name": "ids",
          "type": "uint256[]"
        },
        {
          "indexed": false,
          "internalType": "uint256[]",
          "name": "values",
          "type": "uint256[]"
        }
      ],
      "name": "TransferBatch",
      "type": "event"
    },
    {
      "anonymous": false,
      "inputs": [
        {
          "indexed": true,
          "internalType": "address",
          "name": "operator",
          "type": "address"
        },
        {
          "indexed": true,
          "internalType": "address",
          "name": "from",
          "type": "address"
        },
        {
          "indexed": true,
          "internalType": "address",
          "name": "to",
          "type": "address"
        },
        {
          "indexed": false,
          "internalType": "uint256",
          "name": "id",
          "type": "uint256"
        },
        {
          "indexed": false,
          "internalType": "uint256",
          "name": "value",
          "type": "uint256"
        }
      ],
      "name": "TransferSingle",
      "type": "event"
    },
    {
      "anonymous": false,
      "inputs": [
        {
          "indexed": false,
          "internalType": "string",
          "name": "value",
          "type": "string"
        },
        {
          "indexed": true,
          "internalType": "uint256",
          "name": "id",
          "type": "uint256"
        }
      ],
      "name": "URI",
      "type": "event"
    },
    {
      "inputs": [
        {
          "internalType": "uint256",
          "name": "tokenid",
          "type": "uint256"
        }
      ],
      "name": "ForgeTokenById",
      "outputs": [],
      "stateMutability": "nonpayable",
      "type": "function"
    },
    {
      "inputs": [],
      "name": "TOKEN_0",
      "outputs": [
        {
          "internalType": "uint256",
          "name": "",
          "type": "uint256"
        }
      ],
      "stateMutability": "view",
      "type": "function"
    },
    {
      "inputs": [],
      "name": "TOKEN_1",
      "outputs": [
        {
          "internalType": "uint256",
          "name": "",
          "type": "uint256"
        }
      ],
      "stateMutability": "view",
      "type": "function"
    },
    {
      "inputs": [],
      "name": "TOKEN_2",
      "outputs": [
        {
          "internalType": "uint256",
          "name": "",
          "type": "uint256"
        }
      ],
      "stateMutability": "view",
      "type": "function"
    },
    {
      "inputs": [],
      "name": "TOKEN_3",
      "outputs": [
        {
          "internalType": "uint256",
          "name": "",
          "type": "uint256"
        }
      ],
      "stateMutability": "view",
      "type": "function"
    },
    {
      "inputs": [],
      "name": "TOKEN_4",
      "outputs": [
        {
          "internalType": "uint256",
          "name": "",
          "type": "uint256"
        }
      ],
      "stateMutability": "view",
      "type": "function"
    },
    {
      "inputs": [],
      "name": "TOKEN_5",
      "outputs": [
        {
          "internalType": "uint256",
          "name": "",
          "type": "uint256"
        }
      ],
      "stateMutability": "view",
      "type": "function"
    },
    {
      "inputs": [],
      "name": "TOKEN_6",
      "outputs": [
        {
          "internalType": "uint256",
          "name": "",
          "type": "uint256"
        }
      ],
      "stateMutability": "view",
      "type": "function"
    },
    {
      "inputs": [
        {
          "internalType": "address",
          "name": "account",
          "type": "address"
        },
        {
          "internalType": "uint256",
          "name": "id",
          "type": "uint256"
        }
      ],
      "name": "balanceOf",
      "outputs": [
        {
          "internalType": "uint256",
          "name": "",
          "type": "uint256"
        }
      ],
      "stateMutability": "view",
      "type": "function"
    },
    {
      "inputs": [
        {
          "internalType": "address[]",
          "name": "accounts",
          "type": "address[]"
        },
        {
          "internalType": "uint256[]",
          "name": "ids",
          "type": "uint256[]"
        }
      ],
      "name": "balanceOfBatch",
      "outputs": [
        {
          "internalType": "uint256[]",
          "name": "",
          "type": "uint256[]"
        }
      ],
      "stateMutability": "view",
      "type": "function"
    },
    {
      "inputs": [
        {
          "internalType": "uint256",
          "name": "tokenid",
          "type": "uint256"
        }
      ],
      "name": "freeMint",
      "outputs": [],
      "stateMutability": "nonpayable",
      "type": "function"
    },
    {
      "inputs": [
        {
          "internalType": "address",
          "name": "account",
          "type": "address"
        },
        {
          "internalType": "address",
          "name": "operator",
          "type": "address"
        }
      ],
      "name": "isApprovedForAll",
      "outputs": [
        {
          "internalType": "bool",
          "name": "",
          "type": "bool"
        }
      ],
      "stateMutability": "view",
      "type": "function"
    },
    {
      "inputs": [],
      "name": "lastMintTimestamp",
      "outputs": [
        {
          "internalType": "uint256",
          "name": "",
          "type": "uint256"
        }
      ],
      "stateMutability": "view",
      "type": "function"
    },
    {
      "inputs": [],
      "name": "owner",
      "outputs": [
        {
          "internalType": "address",
          "name": "",
          "type": "address"
        }
      ],
      "stateMutability": "view",
      "type": "function"
    },
    {
      "inputs": [],
      "name": "renounceOwnership",
      "outputs": [],
      "stateMutability": "nonpayable",
      "type": "function"
    },
    {
      "inputs": [
        {
          "internalType": "address",
          "name": "from",
          "type": "address"
        },
        {
          "internalType": "address",
          "name": "to",
          "type": "address"
        },
        {
          "internalType": "uint256[]",
          "name": "ids",
          "type": "uint256[]"
        },
        {
          "internalType": "uint256[]",
          "name": "amounts",
          "type": "uint256[]"
        },
        {
          "internalType": "bytes",
          "name": "data",
          "type": "bytes"
        }
      ],
      "name": "safeBatchTransferFrom",
      "outputs": [],
      "stateMutability": "nonpayable",
      "type": "function"
    },
    {
      "inputs": [
        {
          "internalType": "address",
          "name": "from",
          "type": "address"
        },
        {
          "internalType": "address",
          "name": "to",
          "type": "address"
        },
        {
          "internalType": "uint256",
          "name": "id",
          "type": "uint256"
        },
        {
          "internalType": "uint256",
          "name": "amount",
          "type": "uint256"
        },
        {
          "internalType": "bytes",
          "name": "data",
          "type": "bytes"
        }
      ],
      "name": "safeTransferFrom",
      "outputs": [],
      "stateMutability": "nonpayable",
      "type": "function"
    },
    {
      "inputs": [
        {
          "internalType": "address",
          "name": "operator",
          "type": "address"
        },
        {
          "internalType": "bool",
          "name": "approved",
          "type": "bool"
        }
      ],
      "name": "setApprovalForAll",
      "outputs": [],
      "stateMutability": "nonpayable",
      "type": "function"
    },
    {
      "inputs": [
        {
          "internalType": "bytes4",
          "name": "interfaceId",
          "type": "bytes4"
        }
      ],
      "name": "supportsInterface",
      "outputs": [
        {
          "internalType": "bool",
          "name": "",
          "type": "bool"
        }
      ],
      "stateMutability": "view",
      "type": "function"
    },
    {
      "inputs": [
        {
          "internalType": "uint256",
          "name": "tokenId",
          "type": "uint256"
        }
      ],
      "name": "tokenURI",
      "outputs": [
        {
          "internalType": "string",
          "name": "",
          "type": "string"
        }
      ],
      "stateMutability": "view",
      "type": "function"
    },
    {
      "inputs": [
        {
          "internalType": "uint256",
          "name": "tradeTokenId",
          "type": "uint256"
        },
        {
          "internalType": "uint256",
          "name": "receiveTokenId",
          "type": "uint256"
        }
      ],
      "name": "tradeToken",
      "outputs": [],
      "stateMutability": "nonpayable",
      "type": "function"
    },
    {
      "inputs": [
        {
          "internalType": "address",
          "name": "newOwner",
          "type": "address"
        }
      ],
      "name": "transferOwnership",
      "outputs": [],
      "stateMutability": "nonpayable",
      "type": "function"
    },
    {
      "inputs": [
        {
          "internalType": "uint256",
          "name": "",
          "type": "uint256"
        }
      ],
      "name": "uri",
      "outputs": [
        {
          "internalType": "string",
          "name": "",
          "type": "string"
        }
      ],
      "stateMutability": "view",
      "type": "function"
    }
  ],
  "transactionHash": "0x1aea5bba959dbae491c811665bf5839e0d533d5ea8e888b47c2dcf7d0f7cc852",
  "args": [
    "0x17D47f5a76e9601C4179963E18cc17918564864F"
  ],
  "numDeployments": 1,
  "solcInputHash": "4fcc4c2b46658413763de21d2ed8573c",
  "bytecode": "0x60806040523480156200001157600080fd5b50604051620020ff380380620020ff8339810160408190526200003491620000d2565b806040518060a00160405280606581526020016200209a606591396200005a816200006e565b50620000663362000080565b505062000275565b60026200007c8282620001a9565b5050565b600380546001600160a01b038381166001600160a01b0319831681179093556040519116919082907f8be0079c531659141344cd1fd0a4f28419497f9722a3daafe3b4186f6b6457e090600090a35050565b600060208284031215620000e557600080fd5b81516001600160a01b0381168114620000fd57600080fd5b9392505050565b634e487b7160e01b600052604160045260246000fd5b600181811c908216806200012f57607f821691505b6020821081036200015057634e487b7160e01b600052602260045260246000fd5b50919050565b601f821115620001a457600081815260208120601f850160051c810160208610156200017f5750805b601f850160051c820191505b81811015620001a0578281556001016200018b565b5050505b505050565b81516001600160401b03811115620001c557620001c562000104565b620001dd81620001d684546200011a565b8462000156565b602080601f831160018114620002155760008415620001fc5750858301515b600019600386901b1c1916600185901b178555620001a0565b600085815260208120601f198616915b82811015620002465788860151825594840194600190910190840162000225565b5085821015620002655787850151600019600388901b60f8161c191681555b5050505050600190811b01905550565b611e1580620002856000396000f3fe608060405234801561001057600080fd5b506004361061014c5760003560e01c80637c928fe9116100c3578063c87b56dd1161007c578063c87b56dd1461028f578063d99939a2146102a2578063e74d3862146102aa578063e985e9c5146102b2578063f242432a146102ee578063f2fde38b1461030157600080fd5b80637c928fe91461023557806382c0fa30146102485780638da5cb5b146102505780638e80ff5d1461026b578063a22cb46514610274578063a3cacc851461028757600080fd5b80632eb2c2d6116101155780632eb2c2d6146101d7578063453f6a32146101ea5780634a3268e4146101f25780634e1273f4146101fa5780636976bc781461021a578063715018a61461022d57600080fd5b8062fdd58e1461015157806301ffc9a7146101775780630d9371ad1461019a5780630e89341c146101a25780632d854d4c146101c2575b600080fd5b61016461015f366004611559565b610314565b6040519081526020015b60405180910390f35b61018a610185366004611599565b6103ad565b604051901515815260200161016e565b610164600481565b6101b56101b03660046115b6565b6103fd565b60405161016e919061161f565b6101d56101d0366004611632565b610491565b005b6101d56101e53660046117a0565b610542565b610164600381565b610164600181565b61020d61020836600461184a565b61058e565b60405161016e9190611950565b6101d56102283660046115b6565b6106b8565b6101d56107e3565b6101d56102433660046115b6565b6107f7565b610164600281565b6003546040516001600160a01b03909116815260200161016e565b61016460045481565b6101d5610282366004611963565b6108ea565b610164600681565b6101b561029d3660046115b6565b6108f5565b610164600081565b610164600581565b61018a6102c036600461199f565b6001600160a01b03918216600090815260016020908152604080832093909416825291909152205460ff1690565b6101d56102fc3660046119d2565b610997565b6101d561030f366004611a37565b6109dc565b60006001600160a01b0383166103845760405162461bcd60e51b815260206004820152602a60248201527f455243313135353a2061646472657373207a65726f206973206e6f742061207660448201526930b634b21037bbb732b960b11b60648201526084015b60405180910390fd5b506000818152602081815260408083206001600160a01b03861684529091529020545b92915050565b60006001600160e01b03198216636cdb3d1360e11b14806103de57506001600160e01b031982166303a24d0760e21b145b806103a757506301ffc9a760e01b6001600160e01b03198316146103a7565b60606002805461040c90611a52565b80601f016020809104026020016040519081016040528092919081815260200182805461043890611a52565b80156104855780601f1061045a57610100808354040283529160200191610485565b820191906000526020600020905b81548152906001019060200180831161046857829003601f168201915b50505050509050919050565b8082036104e05760405162461bcd60e51b815260206004820152601760248201527f43616e6e6f742074726164652073616d6520746f6b656e000000000000000000604482015260640161037b565b60038214806104ef5750600482145b806104fa5750600582145b806105055750600682145b1561051a5761051633836001610a52565b5050565b61052633836001610a52565b6105163382600160405180602001604052806000815250610bd3565b6001600160a01b03851633148061055e575061055e85336102c0565b61057a5760405162461bcd60e51b815260040161037b90611a8c565b6105878585858585610cde565b5050505050565b606081518351146105f35760405162461bcd60e51b815260206004820152602960248201527f455243313135353a206163636f756e747320616e6420696473206c656e677468604482015268040dad2e6dac2e8c6d60bb1b606482015260840161037b565b6000835167ffffffffffffffff81111561060f5761060f611654565b604051908082528060200260200182016040528015610638578160200160208202803683370190505b50905060005b84518110156106b05761068385828151811061065c5761065c611ada565b602002602001015185838151811061067657610676611ada565b6020026020010151610314565b82828151811061069557610695611ada565b60209081029190910101526106a981611b06565b905061063e565b509392505050565b80600314806106c75750806004145b806106d25750806005145b806106dd5750806006145b61073a5760405162461bcd60e51b815260206004820152602860248201527f5468697320746f6b656e2063616e206f6e6c79206265206d696e746564206e6f6044820152671d08199bdc99d95960c21b606482015260840161037b565b806003036107605761074f3360006001610a52565b61075b33600180610a52565b6107c4565b806004036107815761077433600180610a52565b61075b3360026001610a52565b80600503610796576107743360006001610a52565b806006036107c4576107ab3360006001610a52565b6107b733600180610a52565b6107c43360026001610a52565b6107e03382600160405180602001604052806000815250610bd3565b50565b6107eb610ebb565b6107f56000610f15565b565b8015806108045750806001145b8061080f5750806002145b61086c5760405162461bcd60e51b815260206004820152602860248201527f5468697320746f6b656e2063616e206f6e6c7920626520666f72676564206e6f6044820152671d081b5a5b9d195960c21b606482015260840161037b565b60006004544261087c9190611b1f565b9050603c81116108c75760405162461bcd60e51b815260206004820152601660248201527521b0b73737ba1036b4b73a103a37b5b2b7103cb2ba1760511b604482015260640161037b565b426004819055506105163383600160405180602001604052806000815250610bd3565b610516338383610f67565b60606007821061093a5760405162461bcd60e51b815260206004820152601060248201526f125b9d985b1a59081d1bdad95b88125960821b604482015260640161037b565b6000610945836103fd565b905060008151116109655760405180602001604052806000815250610990565b8061096f84611047565b604051602001610980929190611b32565b6040516020818303038152906040525b9392505050565b6001600160a01b0385163314806109b357506109b385336102c0565b6109cf5760405162461bcd60e51b815260040161037b90611a8c565b61058785858585856110da565b6109e4610ebb565b6001600160a01b038116610a495760405162461bcd60e51b815260206004820152602660248201527f4f776e61626c653a206e6577206f776e657220697320746865207a65726f206160448201526564647265737360d01b606482015260840161037b565b6107e081610f15565b6001600160a01b038316610ab45760405162461bcd60e51b815260206004820152602360248201527f455243313135353a206275726e2066726f6d20746865207a65726f206164647260448201526265737360e81b606482015260840161037b565b336000610ac084611204565b90506000610acd84611204565b60408051602080820183526000918290528882528181528282206001600160a01b038b1683529052205490915084811015610b565760405162461bcd60e51b8152602060048201526024808201527f455243313135353a206275726e20616d6f756e7420657863656564732062616c604482015263616e636560e01b606482015260840161037b565b6000868152602081815260408083206001600160a01b038b81168086529184528285208a8703905582518b81529384018a90529092908816917fc3d58168c5ae7397731d063d5bbf3d657854427343f4c083240f7aacaa2d0f62910160405180910390a46040805160208101909152600090525b50505050505050565b6001600160a01b038416610c335760405162461bcd60e51b815260206004820152602160248201527f455243313135353a206d696e7420746f20746865207a65726f206164647265736044820152607360f81b606482015260840161037b565b336000610c3f85611204565b90506000610c4c85611204565b90506000868152602081815260408083206001600160a01b038b16845290915281208054879290610c7e908490611b61565b909155505060408051878152602081018790526001600160a01b03808a1692600092918716917fc3d58168c5ae7397731d063d5bbf3d657854427343f4c083240f7aacaa2d0f62910160405180910390a4610bca8360008989898961124f565b8151835114610d405760405162461bcd60e51b815260206004820152602860248201527f455243313135353a2069647320616e6420616d6f756e7473206c656e677468206044820152670dad2e6dac2e8c6d60c31b606482015260840161037b565b6001600160a01b038416610d665760405162461bcd60e51b815260040161037b90611b74565b3360005b8451811015610e4d576000858281518110610d8757610d87611ada565b602002602001015190506000858381518110610da557610da5611ada565b602090810291909101810151600084815280835260408082206001600160a01b038e168352909352919091205490915081811015610df55760405162461bcd60e51b815260040161037b90611bb9565b6000838152602081815260408083206001600160a01b038e8116855292528083208585039055908b16825281208054849290610e32908490611b61565b9250508190555050505080610e4690611b06565b9050610d6a565b50846001600160a01b0316866001600160a01b0316826001600160a01b03167f4a39dc06d4c0dbc64b70af90fd698a233a518aa5d07e595d983b8c0526c8f7fb8787604051610e9d929190611c03565b60405180910390a4610eb38187878787876113aa565b505050505050565b6003546001600160a01b031633146107f55760405162461bcd60e51b815260206004820181905260248201527f4f776e61626c653a2063616c6c6572206973206e6f7420746865206f776e6572604482015260640161037b565b600380546001600160a01b038381166001600160a01b0319831681179093556040519116919082907f8be0079c531659141344cd1fd0a4f28419497f9722a3daafe3b4186f6b6457e090600090a35050565b816001600160a01b0316836001600160a01b031603610fda5760405162461bcd60e51b815260206004820152602960248201527f455243313135353a2073657474696e6720617070726f76616c20737461747573604482015268103337b91039b2b63360b91b606482015260840161037b565b6001600160a01b03838116600081815260016020908152604080832094871680845294825291829020805460ff191686151590811790915591519182527f17307eab39ab6107e8899845ad3d59bd9653f200f220920489ca2b5937696c31910160405180910390a3505050565b6060600061105483611465565b600101905060008167ffffffffffffffff81111561107457611074611654565b6040519080825280601f01601f19166020018201604052801561109e576020820181803683370190505b5090508181016020015b600019016f181899199a1a9b1b9c1cb0b131b232b360811b600a86061a8153600a85049450846110a857509392505050565b6001600160a01b0384166111005760405162461bcd60e51b815260040161037b90611b74565b33600061110c85611204565b9050600061111985611204565b90506000868152602081815260408083206001600160a01b038c1684529091529020548581101561115c5760405162461bcd60e51b815260040161037b90611bb9565b6000878152602081815260408083206001600160a01b038d8116855292528083208985039055908a16825281208054889290611199908490611b61565b909155505060408051888152602081018890526001600160a01b03808b16928c821692918816917fc3d58168c5ae7397731d063d5bbf3d657854427343f4c083240f7aacaa2d0f62910160405180910390a46111f9848a8a8a8a8a61124f565b505050505050505050565b6040805160018082528183019092526060916000919060208083019080368337019050509050828160008151811061123e5761123e611ada565b602090810291909101015292915050565b6001600160a01b0384163b15610eb35760405163f23a6e6160e01b81526001600160a01b0385169063f23a6e61906112939089908990889088908890600401611c31565b6020604051808303816000875af19250505080156112ce575060408051601f3d908101601f191682019092526112cb91810190611c76565b60015b61137a576112da611c93565b806308c379a00361131357506112ee611caf565b806112f95750611315565b8060405162461bcd60e51b815260040161037b919061161f565b505b60405162461bcd60e51b815260206004820152603460248201527f455243313135353a207472616e7366657220746f206e6f6e2d455243313135356044820152732932b1b2b4bb32b91034b6b83632b6b2b73a32b960611b606482015260840161037b565b6001600160e01b0319811663f23a6e6160e01b14610bca5760405162461bcd60e51b815260040161037b90611d39565b6001600160a01b0384163b15610eb35760405163bc197c8160e01b81526001600160a01b0385169063bc197c81906113ee9089908990889088908890600401611d81565b6020604051808303816000875af1925050508015611429575060408051601f3d908101601f1916820190925261142691810190611c76565b60015b611435576112da611c93565b6001600160e01b0319811663bc197c8160e01b14610bca5760405162461bcd60e51b815260040161037b90611d39565b60008072184f03e93ff9f4daa797ed6e38ed64bf6a1f0160401b83106114a45772184f03e93ff9f4daa797ed6e38ed64bf6a1f0160401b830492506040015b6d04ee2d6d415b85acef810000000083106114d0576d04ee2d6d415b85acef8100000000830492506020015b662386f26fc1000083106114ee57662386f26fc10000830492506010015b6305f5e1008310611506576305f5e100830492506008015b612710831061151a57612710830492506004015b6064831061152c576064830492506002015b600a83106103a75760010192915050565b80356001600160a01b038116811461155457600080fd5b919050565b6000806040838503121561156c57600080fd5b6115758361153d565b946020939093013593505050565b6001600160e01b0319811681146107e057600080fd5b6000602082840312156115ab57600080fd5b813561099081611583565b6000602082840312156115c857600080fd5b5035919050565b60005b838110156115ea5781810151838201526020016115d2565b50506000910152565b6000815180845261160b8160208601602086016115cf565b601f01601f19169290920160200192915050565b60208152600061099060208301846115f3565b6000806040838503121561164557600080fd5b50508035926020909101359150565b634e487b7160e01b600052604160045260246000fd5b601f8201601f1916810167ffffffffffffffff8111828210171561169057611690611654565b6040525050565b600067ffffffffffffffff8211156116b1576116b1611654565b5060051b60200190565b600082601f8301126116cc57600080fd5b813560206116d982611697565b6040516116e6828261166a565b83815260059390931b850182019282810191508684111561170657600080fd5b8286015b84811015611721578035835291830191830161170a565b509695505050505050565b600082601f83011261173d57600080fd5b813567ffffffffffffffff81111561175757611757611654565b60405161176e601f8301601f19166020018261166a565b81815284602083860101111561178357600080fd5b816020850160208301376000918101602001919091529392505050565b600080600080600060a086880312156117b857600080fd5b6117c18661153d565b94506117cf6020870161153d565b9350604086013567ffffffffffffffff808211156117ec57600080fd5b6117f889838a016116bb565b9450606088013591508082111561180e57600080fd5b61181a89838a016116bb565b9350608088013591508082111561183057600080fd5b5061183d8882890161172c565b9150509295509295909350565b6000806040838503121561185d57600080fd5b823567ffffffffffffffff8082111561187557600080fd5b818501915085601f83011261188957600080fd5b8135602061189682611697565b6040516118a3828261166a565b83815260059390931b85018201928281019150898411156118c357600080fd5b948201945b838610156118e8576118d98661153d565b825294820194908201906118c8565b965050860135925050808211156118fe57600080fd5b5061190b858286016116bb565b9150509250929050565b600081518084526020808501945080840160005b8381101561194557815187529582019590820190600101611929565b509495945050505050565b6020815260006109906020830184611915565b6000806040838503121561197657600080fd5b61197f8361153d565b91506020830135801515811461199457600080fd5b809150509250929050565b600080604083850312156119b257600080fd5b6119bb8361153d565b91506119c96020840161153d565b90509250929050565b600080600080600060a086880312156119ea57600080fd5b6119f38661153d565b9450611a016020870161153d565b93506040860135925060608601359150608086013567ffffffffffffffff811115611a2b57600080fd5b61183d8882890161172c565b600060208284031215611a4957600080fd5b6109908261153d565b600181811c90821680611a6657607f821691505b602082108103611a8657634e487b7160e01b600052602260045260246000fd5b50919050565b6020808252602e908201527f455243313135353a2063616c6c6572206973206e6f7420746f6b656e206f776e60408201526d195c881bdc88185c1c1c9bdd995960921b606082015260800190565b634e487b7160e01b600052603260045260246000fd5b634e487b7160e01b600052601160045260246000fd5b600060018201611b1857611b18611af0565b5060010190565b818103818111156103a7576103a7611af0565b60008351611b448184602088016115cf565b835190830190611b588183602088016115cf565b01949350505050565b808201808211156103a7576103a7611af0565b60208082526025908201527f455243313135353a207472616e7366657220746f20746865207a65726f206164604082015264647265737360d81b606082015260800190565b6020808252602a908201527f455243313135353a20696e73756666696369656e742062616c616e636520666f60408201526939103a3930b739b332b960b11b606082015260800190565b604081526000611c166040830185611915565b8281036020840152611c288185611915565b95945050505050565b6001600160a01b03868116825285166020820152604081018490526060810183905260a060808201819052600090611c6b908301846115f3565b979650505050505050565b600060208284031215611c8857600080fd5b815161099081611583565b600060033d1115611cac5760046000803e5060005160e01c5b90565b600060443d1015611cbd5790565b6040516003193d81016004833e81513d67ffffffffffffffff8160248401118184111715611ced57505050505090565b8285019150815181811115611d055750505050505090565b843d8701016020828501011115611d1f5750505050505090565b611d2e6020828601018761166a565b509095945050505050565b60208082526028908201527f455243313135353a204552433131353552656365697665722072656a656374656040820152676420746f6b656e7360c01b606082015260800190565b6001600160a01b0386811682528516602082015260a060408201819052600090611dad90830186611915565b8281036060840152611dbf8186611915565b90508281036080840152611dd381856115f3565b9897505050505050505056fea2646970667358221220f566f3bdd0e2e3a080f5dd24a889b85e80aed43ec916aad0565d21b87cbea1c664736f6c6343000811003368747470733a2f2f6d6f63636173696e2d706173736976652d66726f672d3738342e6d7970696e6174612e636c6f75642f697066732f516d5a446f793947755a614c6e76596b4776654a79716e5a347039384770546e74694b4b6231587447486d5746582f",
  "devdoc": {
    "kind": "dev",
    "methods": {
      "balanceOf(address,uint256)": {
        "details": "See {IERC1155-balanceOf}. Requirements: - `account` cannot be the zero address."
      },
      "balanceOfBatch(address[],uint256[])": {
        "details": "See {IERC1155-balanceOfBatch}. Requirements: - `accounts` and `ids` must have the same length."
      },
      "isApprovedForAll(address,address)": {
        "details": "See {IERC1155-isApprovedForAll}."
      },
      "owner()": {
        "details": "Returns the address of the current owner."
      },
      "renounceOwnership()": {
        "details": "Leaves the contract without owner. It will not be possible to call `onlyOwner` functions. Can only be called by the current owner. NOTE: Renouncing ownership will leave the contract without an owner, thereby disabling any functionality that is only available to the owner."
      },
      "safeBatchTransferFrom(address,address,uint256[],uint256[],bytes)": {
        "details": "See {IERC1155-safeBatchTransferFrom}."
      },
      "safeTransferFrom(address,address,uint256,uint256,bytes)": {
        "details": "See {IERC1155-safeTransferFrom}."
      },
      "setApprovalForAll(address,bool)": {
        "details": "See {IERC1155-setApprovalForAll}."
      },
      "supportsInterface(bytes4)": {
        "details": "See {IERC165-supportsInterface}."
      },
      "transferOwnership(address)": {
        "details": "Transfers ownership of the contract to a new account (`newOwner`). Can only be called by the current owner."
      },
      "uri(uint256)": {
        "details": "See {IERC1155MetadataURI-uri}. This implementation returns the same URI for *all* token types. It relies on the token type ID substitution mechanism https://eips.ethereum.org/EIPS/eip-1155#metadata[defined in the EIP]. Clients calling this function must replace the `\\{id\\}` substring with the actual token type ID."
      }
    },
    "version": 1
  },
  "userdoc": {
    "kind": "user",
    "methods": {},
    "version": 1
  },
  "storageLayout": {
    "storage": [
      {
        "astId": 138,
        "contract": "contracts/ForgeTokens.sol:ForgeToken",
        "label": "_balances",
        "offset": 0,
        "slot": "0",
        "type": "t_mapping(t_uint256,t_mapping(t_address,t_uint256))"
      },
      {
        "astId": 144,
        "contract": "contracts/ForgeTokens.sol:ForgeToken",
        "label": "_operatorApprovals",
        "offset": 0,
        "slot": "1",
        "type": "t_mapping(t_address,t_mapping(t_address,t_bool))"
      },
      {
        "astId": 146,
        "contract": "contracts/ForgeTokens.sol:ForgeToken",
        "label": "_uri",
        "offset": 0,
        "slot": "2",
        "type": "t_string_storage"
      },
      {
        "astId": 7,
        "contract": "contracts/ForgeTokens.sol:ForgeToken",
        "label": "_owner",
        "offset": 0,
        "slot": "3",
        "type": "t_address"
      },
      {
        "astId": 3144,
        "contract": "contracts/ForgeTokens.sol:ForgeToken",
        "label": "lastMintTimestamp",
        "offset": 0,
        "slot": "4",
        "type": "t_uint256"
      }
    ],
    "types": {
      "t_address": {
        "encoding": "inplace",
        "label": "address",
        "numberOfBytes": "20"
      },
      "t_bool": {
        "encoding": "inplace",
        "label": "bool",
        "numberOfBytes": "1"
      },
      "t_mapping(t_address,t_bool)": {
        "encoding": "mapping",
        "key": "t_address",
        "label": "mapping(address => bool)",
        "numberOfBytes": "32",
        "value": "t_bool"
      },
      "t_mapping(t_address,t_mapping(t_address,t_bool))": {
        "encoding": "mapping",
        "key": "t_address",
        "label": "mapping(address => mapping(address => bool))",
        "numberOfBytes": "32",
        "value": "t_mapping(t_address,t_bool)"
      },
      "t_mapping(t_address,t_uint256)": {
        "encoding": "mapping",
        "key": "t_address",
        "label": "mapping(address => uint256)",
        "numberOfBytes": "32",
        "value": "t_uint256"
      },
      "t_mapping(t_uint256,t_mapping(t_address,t_uint256))": {
        "encoding": "mapping",
        "key": "t_uint256",
        "label": "mapping(uint256 => mapping(address => uint256))",
        "numberOfBytes": "32",
        "value": "t_mapping(t_address,t_uint256)"
      },
      "t_string_storage": {
        "encoding": "bytes",
        "label": "string",
        "numberOfBytes": "32"
      },
      "t_uint256": {
        "encoding": "inplace",
        "label": "uint256",
        "numberOfBytes": "32"
      }
    }
  }
}